:020000040800F2
:1000000090100020B1010008BF080008BB010008E3
:10001000BD080008E9020008750D00080000000096
:1000200000000000000000000000000001090008BE
:100030004503000800000000C10800080509000889
:10004000CB010008CB010008CB010008CB01000860
:10005000CB010008CB010008CB010008CB01000850
:10006000CB010008CB010008CB010008CB01000840
:10007000CB010008CB010008CB010008CB01000830
:10008000CB010008CB010008CB01000800000000F4
:10009000000000000000000000000000CB0100088C
:1000A000CB010008CB010008CB010008CB01000800
:1000B000A9090008CB010008CB010008CB0100080A
:1000C000CB010008CB010008CB010008CB010008E0
:1000D000CB010008E10B0008CB0100080000000084
:1000E000CB010008CB010008CB0100080000000094
:1000F000000000000000000000000000CB0100082C
:1001000000000000CB010008CB010008CB01000873
:1001100000000000000000000000000000000000DF
:10012000CB010008CB010008CB010008CB0100087F
:10013000CB010008000000000000000000000000EB
:10014000000000000000000000000000CB010008DB
:10015000CB010008CB010008CB010008CB0100084F
:10016000CB010008CB0100080000000000000000E7
:10017000000000000000000000000000000000007F
:1001800000000000CB01000800000000000000009B
:10019000CB010008CB010008DFF810D000F092F886
:1001A00000480047DD120008AFF3008090100020E7
:1001B0000648804706480047FEE7FEE7FEE7FEE701
:1001C000FEE7FEE7FEE7FEE7FEE7FEE79909000827
:1001D000990100082DE9F05F0546002092469B46F4
:1001E00088460646814640241BE02846414647464D
:1001F000224600F057F853465A46C01A914110D390
:1002000011461846224600F03EF82D1A67EB010809
:100210004F4622460120002100F035F817EB000977
:100220004E41201EA4F10104DFDC484631462A4637
:100230004346BDE8F09FD2B201E000F8012B491E11
:10024000FBD270470022F6E710B513460A46044673
:100250001946FFF7F0FF204610BD30B50B460146AA
:1002600000202022012409E021FA02F59D4205D355
:1002700003FA02F5491B04FA02F52844151EA2F1FF
:100280000102F1DC30BD202A04DB203A00FA02F141
:10029000002070479140C2F1200320FA03F3194374
:1002A00090407047202A04DB203A21FA02F0002116
:1002B000704721FA02F3D040C2F120029140084376
:1002C00019467047064C074D06E0E06840F0010310
:1002D00094E8070098471034AC42F6D3FFF760FF6C
:1002E0004413000864130008FEE7000010B5A0B135
:1002F000012810D002280ED003280CD004280AD0E0
:10030000052808D0062806D0072804D04FF48E719F
:1003100003A000F018F8002010BD094810BD00002F
:100320002E2E5C557365725C6273705C7372635CD5
:100330006273705F756172745F6669666F2E6300C9
:10034000600000207047002900D0FEE770470000E1
:100350002DE9F84FDFF8B8A10022012403254FF062
:100360000F090AF1040BAAF1040E00BF0B6804FA8E
:1003700002F63340B34273D10F7907F00307012F20
:1003800001D0022F16D187684FEA420805FA08FC0F
:1003900027EA0C07D1F80CC00CFA08FC4CEA070C51
:1003A000C0F808C04768B7430E79C6F300169640F8
:1003B0003E4346600E79F643B6070DD0C768560037
:1003C00005FA06FC27EA0C07D1F808C00CFA06FC6F
:1003D0004CEA070CC0F80CC00E7906F00306022E9A
:1003E00010D1D60800EB8608D8F8206057074FEAEE
:1003F000D76C09FA0CF7BE430F6907FA0CF73743BD
:10040000C8F8207006684FEA420C05FA0CF7BE43A4
:100410000F7907F0030707FA0CF7374307604E68B8
:1004200016F4403F6DD03B4E376847F48047376045
:10043000366822F0030706F480460096364E07EB36
:10044000060CDCF8086897073F0F09FA07F826EA58
:100450000806DFF8C880404503D14FF000081EE0D1
:100460004FE0DFF8BC80404502D14FF0010816E0B4
:10047000DFF8B080404502D14FF002080FE0DFF80E
:10048000A880404502D14FF0030808E0DFF89C80C7
:10049000404502D14FF0040801E04FF0070808FA88
:1004A00007F848EA0608CCF80888DAF800605746EA
:1004B000D1F804C09E435FEACC2C00D51E433E60B9
:1004C000DBF800605F46D1F804C09E435FEA8C2CE5
:1004D00000D51E433E60DEF800607746D1F804C0C8
:1004E0009E435FEA8C3C00D51E433E60084F083FA8
:1004F0003E68D1F804C09E435FEACC3C00D51E4361
:100500003E60521C102AFFF431AFBDE8F88F0000A6
:10051000083C0140443802400030014000000240E5
:100520000004024000080240000C0240001002409B
:10053000426921EA02030A4043EA024181617047AD
:100540000AB1816170470904FBE700000248816835
:1005500002781144816070471C0000200B4810B5E0
:10056000016841F400710160016841F4806101603B
:10057000016841F480710160032000F06FF80F20E2
:1005800000F006F800F024F8002010BD003C024006
:1005900070B50D4D04464FF47A712878B1FBF0F038
:1005A0000A490968B1FBF0F000F08AF848B9102C4C
:1005B00007D200222146501E00F030F800206C6067
:1005C00070BD012070BD00001C000020280000202C
:1005D0000A4808B5016841F480410160006800F4F0
:1005E000804000900548001F016841F08051016083
:1005F000006800F08050009008BD000044380240C0
:10060000002809DB00F01F02012191404009800011
:1006100000F1E020C0F8001170470000F0B40E4B6C
:100620001B680C46C3F30223C3F10705042D00D950
:100630000425191D072901D2002300E0DB1E012635
:1006400006FA05F1491E214099409E40761E16404B
:100650003143F0BC00F0A0BB0CED00E0064900F017
:10066000070208684FF6FF03184040EA0220034AD9
:1006700010430860704700000CED00E00000FA0530
:100680000448054900680968044AC1F38221515CA5
:10069000C840704728000020083802403C1300087A
:1006A0000448054900680968044AC1F34231515CB5
:1006B000C840704728000020083802403C1300085A
:1006C00010B5401EB0F1807F01D3012010BD4FF066
:1006D000E02460610F21601700F05EFB0020A06144
:1006E00007202061002010BD10B5040003D094F84D
:1006F0003D0010B107E0012010BD002084F83C004F
:10070000204600F01EF8022084F83D00211D2068DC
:1007100000F094F9012084F8460084F83E0084F843
:100720003F0084F8400084F8410084F8420084F8D7
:10073000430084F8440084F8450084F83D0000201C
:1007400010BD704790F83D10012901D0012070477D
:10075000022180F83D1000680E4988420ED0B0F1A9
:10076000804F0BD00C49884208D00C49884205D0F4
:100770000B49884202D00B49884204D1816801F0BC
:100780000701062903D0016841F001010160002042
:1007900070470000000001400004004000080040D5
:1007A000000C00400040014070B5040004D094F8F3
:1007B0003D00002510B106E0012070BD84F83C50DA
:1007C000204600F022F8242084F83D002068C1680B
:1007D00021F40051C160204600F07CF920680169D5
:1007E00021F4904101612068416921F02A014161B1
:1007F0002068C16841F40051C1602564202084F85C
:100800003D0084F83E00002070BD704730B5284898
:1008100087B0016841F001010160016801F0010148
:100820000591016841F001010160006800F00100DC
:1008300005901F481430016841F010010160006804
:10084000072400F0100005904FF400700090022083
:100850000190012002900320CDE90304154D694663
:100860002846FFF775FD2815009069460494284630
:10087000FFF76EFD012200212520FFF7CFFE252086
:10088000FFF7BEFE0C4C0C2300224FF4E131204652
:1008900000F09EFC206820F040002060206820F0DE
:1008A00020002060E06840F02000E06007B030BD2C
:1008B000303802400000024000100140FEE770475F
:1008C000704700000C4800B5026887B0002142F074
:1008D00002020260006800F0020005900120CDE9EC
:1008E0000101032003900420009069460348FFF7AC
:1008F0002FFD07B000BD0000303802400004024068
:100900007047000010B5FFF721FE0448407800282A
:1009100003D0BDE8104000F003B810BD0000002077
:1009200070B51B4C6068012220B16068401E606099
:1009300000D12270174B002101EB410003EB800036
:1009400045684DB145686D1E456005D1427005781A
:10095000012D01D185684560491CC9B20429EBD33A
:10096000A068401CA060A0686FF00041002588428C
:1009700000D1A56000F02BFCA078401CC0B2A07094
:100980000A2804D3A570BDE8704000F01FBC70BDFC
:1009900000000020300000200248016841F470018E
:1009A0000160704788ED00E070B54FF08044206929
:1009B000E16810F0020F204D01F0020108D039B1BA
:1009C0004FF6FD702061E1680140E160E868804712
:1009D0002069E16810F0040F01F0040108D039B17A
:1009E0004FF6FB702061E1680140E16028698047B3
:1009F0002069E16810F0080F01F0080108D039B152
:100A00004FF6F7702061E1680140E1606869804756
:100A10002069E16810F0100F01F010010BD00029DF
:100A200009D04FF6EF702061E1680140E160A869EC
:100A3000BDE87040004770BD00000020F0B50268BE
:100A40001D4B1E4C9F031E4D1E4E984207D0B842B0
:100A500005D0A04203D0A84201D0B04204D122F078
:100A6000700C4A6842EA0C02984210D0B8420ED08C
:100A7000A0420CD0A8420AD0B04208D0124CA042EA
:100A800005D0124CA04202D0114CA04203D122F456
:100A90004074CA6822434C6922F0800222430260FB
:100AA0008A68C2620A688262984201D10969016358
:100AB00001214161F0BD0000000001400004004040
:100AC00000080040000C004000400140004401408C
:100AD0000048014070B5044600680169E26821F4ED
:100AE0004051114301612169A068E26908436169CD
:100AF000114308432168CA6849F20C639A430243D0
:100B0000CA6020684169A26921F4407111434161C2
:100B100031492068884202D03049884202D1FFF72B
:100B2000BFFD01E0FFF7ACFDE26900231921642558
:100B30003226B2F5004F626828D0A0FB0101930F66
:100B40009200FFF747FB0146B0FBF5F06FF018028B
:100B5000504301EB800006EB0010B0FBF5F000F015
:100B6000F002B1FBF5F002EB0012B1FBF5F06FF013
:100B70001803584301EB800006EB0010B0FBF5F0C2
:100B800000F00F0021681044886070BDA0FB0101D7
:100B900092185B41FFF71EFB0146B0FBF5F0020126
:100BA000B1FBF5F06FF01803584301EB800006EB42
:100BB000C000B0FBF5F000F0F80002EB4002B1FB22
:100BC000F5F0584301EB800006EBC000B0FBF5F0F8
:100BD00000F00700D6E700000010014000140140BB
:100BE000014800F003B80000600000202DE9F0414A
:100BF000044600680568C7684169A9064FF0000609
:100C000015D54068E28AA168C0B28854E18A491CBF
:100C10008AB2E282E1898A4200D3E682628B8A420A
:100C200002D2618B491C6183616A01B18847280641
:100C300016D5380614D5A08A50B3012084F82800B0
:100C4000618A6068405C21684860608A401C80B2AC
:100C50006082A189884200D36682A08A401EA08259
:100C6000680613D5780611D5A08AE0B1618A60685C
:100C7000405C21684860608A401C80B26082A18923
:100C8000884200D36682A08A401EA082BDE8F0811F
:100C90002068C16821F08001C1602068C16841F00E
:100CA0004001C160DCE72068C16821F04001C160FB
:100CB000206A00B1804784F82860E7E778B5002310
:100CC00025E0012484F31088848AADF800400024D4
:100CD00084F310888489BDF80050AC421FD9CC5CE5
:100CE000068A4568AC55012484F31088048A641C84
:100CF000A4B204828589AC4201D300240482848A90
:100D0000641C8482002484F310885B1C9BB2934291
:100D1000D7D30068C16841F08001C16078BDBDF8DB
:100D20000050AC42CDD10468E5682D06C9D4E56811
:100D300045F08005E560C4E70D480C49016000F10D
:100D40002C01416000F22C4181604FF4806181816F
:100D5000C181002101824182C1820183418381825C
:100D6000C1610162416280F82810704700100140A3
:100D700060000020FEE700000FB4054B10B503A98A
:100D8000044A029800F028F810BC5DF814FB00003B
:100D9000CD1200082C0000200907090E002804DBF2
:100DA00000F1E02080F80014704700F00F0000F11F
:100DB000E02080F8141D704702E008C8121F08C127
:100DC000002AFAD170477047002001E001C1121FCC
:100DD000002AFBD1704700002DE9FF4F8BB09A46E7
:100DE0000F460546002606E025280BD052460D99F1
:100DF00090476D1C761C28780028F5D10FB030463E
:100E0000BDE8F08F0024A0460122604900E00443C1
:100E100015F8013F203B02FA03F00842F7D1287889
:100E20002E2817D115F8010F44F004042A280ED0FB
:100E30006FF02F022878A0F1300109290AD808EBB9
:100E4000880102EB410100EB01086D1CF2E757F845
:100E5000048B6D1C287869283ED006DC0028CDD094
:100E600063280BD0642804D136E0732810D075288D
:100E70004BD052460D999047761C85E017F8040B2D
:100E80008DF8000000208DF80100E946012003E004
:100E900057F8049B4FF0FF3061074FF0000401D476
:100EA0000AE0641C44450DDA8442FADB19F80410A8
:100EB0000029F6D106E0641C8442FCDB19F804101A
:100EC0000029F8D1264404E019F8010B52460D9987
:100ED0009047641EF8D257E001CF4FF00A0B00286C
:100EE00002DA40422D2102E0210504D52B218DF8A4
:100EF0002410012103E0E10705D02021F7E70DF1DF
:100F0000200908910CE00021F9E701CF4FF00A0B0E
:100F1000F9E75946FFF7A1F901F1300209F8012D6F
:100F20000028F6D1ADEB090000F1200B600701D4D9
:100F30004FF00108D84502DDA8EB0B0000E00020CF
:100F40008046002406E009A85246005D0D999047AE
:100F5000641C761C08988442F5DB04E0302052467D
:100F60000D999047761CB8F10001A8F10108F5DC55
:100F700005E019F8010B52460D999047761CBBF11C
:100F80000001ABF1010BF4DC6D1C34E70928010012
:100F9000042807D200EB4001054800EB81004178AE
:100FA000012901D0002070470021417001207047C5
:100FB0003000002010B5FFF7D1FA00F0A9F800F0DA
:100FC000DBF8BDE8104000F04FB8000000B593B06A
:100FD00048216846FFF736F919494FF08043002051
:100FE0000A6842F001020A600968174A01F001012B
:100FF00012911449096800934908B1FBF2F1421EAD
:10100000CDE90320491E89B2CDE901100590802069
:1010100006906846FFF768FB20B140F21F210BA045
:10102000FFF791F9022200211C20FFF7F7FA1C209C
:10103000FFF7E6FA6846FFF785FB13B000BD000036
:10104000403802402800002040420F002E2E5C5500
:101050007365725C6273705C7372635C6273705F01
:1010600074696D65722E63002DE9F04186B014211C
:101070006846FFF7E7F823480024016841F00401BF
:101080000160016801F004010591016841F08001EF
:101090000160016801F080010591016841F00201E1
:1010A0000160016801F002010591016841F0010150
:1010B00001600068144F00F001004FF400550590E6
:1010C000002229463846FFF73BFADFF8408040F21D
:1010D0000746002231464046FFF732FA00950125C7
:1010E000CDE90154694638460394FFF731F900967B
:1010F000CDE90154694640460394FFF729F906B04B
:10110000BDE8F0813038024000080240000402408F
:1011100030B40021144A084601EB410402EB840379
:1011200058609860587002F82400491CC9B204291C
:10113000F2D30E494FF47A720968B1FBF2F1491EFD
:10114000B1F1807F09D24FF0E0225161084BF021CC
:1011500083F8141D90610720106106490120487032
:1011600030BCFFF733BF0000300000202800002013
:101170000FE000E00000002010B5FFF7DDFDFFF7F5
:1011800045FBBDE81040FFF79DBB00000D4A01285C
:101190000CD002280DD003280ED004280ED005282C
:1011A0000ED14FF400510848FFF7C2B94FF48061E7
:1011B00000E004211046F7E70221FBE70121F9E7EF
:1011C000704700000004024000080240704770476A
:1011D00000B591B0CDE9000100200290CDE90302F5
:1011E000CDE9053007906846FFF7DEFA002804D005
:1011F0004FF4497102A0FFF7A6F811B000BD00003E
:101200002E2E5C557365725C6273705C7372635CE6
:101210006273705F756172745F6669666F2E6300DA
:1012200010B5042805D30C4A0CA113A0FFF7A4FDA8
:10123000FEE7012282F31088174A00EB400302EB1D
:1012400083004160816000214170012002F8230089
:1012500081F3108810BD00001B1300082E2E5C5572
:101260007365725C6273705C7372635C6273705FEF
:1012700074696D65722E63004572726F723A2066F2
:10128000696C652025732C2066756E6374696F6EBA
:1012900020257328290D0A003000002070B515465E
:1012A0000E46FFF723F8040009D0E06900B180473B
:1012B0002A4631462046BDE87040FFF7FFBC70BDAE
:1012C00013B5012201A9FFF7E9FF1CBD10B50446C3
:1012D000C1B20020FFF7F4FF204610BD0024FFF745
:1012E00069FE4FF4FA710020FFF79AFF0020FFF724
:1012F0004FFE0128FAD1FFF749FF2146641C02A0E6
:10130000FFF73AFDF2E70000256400006273705FAA
:10131000537461727454696D6572006273705F53C7
:10132000746172744175746F54696D657200627393
:10133000705F53746F7054696D6572000000000037
:1013400001020304641300080000002030000000C4
:10135000B80D000894130008300000206010000051
:10136000C80D0008000000000000000000000000A0
:10137000000000000000000000000000000000006D
:101380000100000010000000000000000024F40034
:041390000000000059
:040000050800019955
:00000001FF
